{
  "_format": "hh-sol-artifact-1",
  "contractName": "Dakter",
  "sourceName": "contracts/Dakter.sol",
  "abi": [
    {
      "anonymous": false,
      "inputs": [
        {
          "indexed": false,
          "internalType": "uint256",
          "name": "patientId",
          "type": "uint256"
        },
        {
          "indexed": false,
          "internalType": "uint256",
          "name": "doctorId",
          "type": "uint256"
        },
        {
          "indexed": false,
          "internalType": "address",
          "name": "patientAddress",
          "type": "address"
        },
        {
          "indexed": false,
          "internalType": "address",
          "name": "doctorAddress",
          "type": "address"
        },
        {
          "indexed": false,
          "internalType": "string",
          "name": "symptoms",
          "type": "string"
        },
        {
          "indexed": false,
          "internalType": "string",
          "name": "pastMedHistory",
          "type": "string"
        },
        {
          "indexed": false,
          "internalType": "string",
          "name": "appointmentDate",
          "type": "string"
        },
        {
          "indexed": false,
          "internalType": "string",
          "name": "appointmentTime",
          "type": "string"
        },
        {
          "indexed": false,
          "internalType": "string",
          "name": "urgencyLevel",
          "type": "string"
        }
      ],
      "name": "AppointmentCreated",
      "type": "event"
    },
    {
      "anonymous": false,
      "inputs": [
        {
          "indexed": false,
          "internalType": "uint256",
          "name": "doctorId",
          "type": "uint256"
        },
        {
          "indexed": false,
          "internalType": "address",
          "name": "doctorWalletAddress",
          "type": "address"
        },
        {
          "indexed": false,
          "internalType": "string",
          "name": "name",
          "type": "string"
        },
        {
          "indexed": false,
          "internalType": "string",
          "name": "age",
          "type": "string"
        },
        {
          "indexed": false,
          "internalType": "string",
          "name": "gender",
          "type": "string"
        },
        {
          "indexed": false,
          "internalType": "string",
          "name": "doctorAddress",
          "type": "string"
        },
        {
          "indexed": false,
          "internalType": "string",
          "name": "specialization",
          "type": "string"
        },
        {
          "indexed": false,
          "internalType": "string",
          "name": "consultanceFee",
          "type": "string"
        },
        {
          "indexed": false,
          "internalType": "string",
          "name": "duration",
          "type": "string"
        }
      ],
      "name": "DoctorCreated",
      "type": "event"
    },
    {
      "anonymous": false,
      "inputs": [
        {
          "indexed": false,
          "internalType": "uint256",
          "name": "patientId",
          "type": "uint256"
        },
        {
          "indexed": false,
          "internalType": "address",
          "name": "patientWalletAddress",
          "type": "address"
        },
        {
          "indexed": false,
          "internalType": "string",
          "name": "name",
          "type": "string"
        },
        {
          "indexed": false,
          "internalType": "string",
          "name": "age",
          "type": "string"
        },
        {
          "indexed": false,
          "internalType": "string",
          "name": "dateOfBirth",
          "type": "string"
        },
        {
          "indexed": false,
          "internalType": "string",
          "name": "gender",
          "type": "string"
        },
        {
          "indexed": false,
          "internalType": "string",
          "name": "patientAddr",
          "type": "string"
        }
      ],
      "name": "PatientCreated",
      "type": "event"
    },
    {
      "anonymous": false,
      "inputs": [
        {
          "indexed": false,
          "internalType": "uint256",
          "name": "patientId",
          "type": "uint256"
        },
        {
          "indexed": false,
          "internalType": "uint256",
          "name": "doctorId",
          "type": "uint256"
        },
        {
          "indexed": false,
          "internalType": "address",
          "name": "doctorAddress",
          "type": "address"
        },
        {
          "indexed": false,
          "internalType": "address",
          "name": "patientAddress",
          "type": "address"
        },
        {
          "indexed": false,
          "internalType": "string",
          "name": "prescriptions",
          "type": "string"
        },
        {
          "indexed": false,
          "internalType": "string",
          "name": "prescriptionDate",
          "type": "string"
        }
      ],
      "name": "PrescriptionAdded",
      "type": "event"
    },
    {
      "inputs": [
        {
          "internalType": "uint256",
          "name": "patientId",
          "type": "uint256"
        },
        {
          "internalType": "uint256",
          "name": "doctorId",
          "type": "uint256"
        },
        {
          "internalType": "address",
          "name": "patientAddress",
          "type": "address"
        },
        {
          "internalType": "string",
          "name": "prescriptions",
          "type": "string"
        },
        {
          "internalType": "string",
          "name": "prescriptionDate",
          "type": "string"
        }
      ],
      "name": "addPrescription",
      "outputs": [],
      "stateMutability": "nonpayable",
      "type": "function"
    },
    {
      "inputs": [
        {
          "internalType": "uint256",
          "name": "patientId",
          "type": "uint256"
        },
        {
          "internalType": "uint256",
          "name": "doctorId",
          "type": "uint256"
        },
        {
          "internalType": "address",
          "name": "doctorAddress",
          "type": "address"
        },
        {
          "internalType": "string",
          "name": "symptoms",
          "type": "string"
        },
        {
          "internalType": "string",
          "name": "pastMedHistory",
          "type": "string"
        },
        {
          "internalType": "string",
          "name": "appointmentDate",
          "type": "string"
        },
        {
          "internalType": "string",
          "name": "appointmentTime",
          "type": "string"
        },
        {
          "internalType": "string",
          "name": "urgencyLevel",
          "type": "string"
        }
      ],
      "name": "createAppointment",
      "outputs": [],
      "stateMutability": "nonpayable",
      "type": "function"
    },
    {
      "inputs": [
        {
          "internalType": "string",
          "name": "name",
          "type": "string"
        },
        {
          "internalType": "string",
          "name": "age",
          "type": "string"
        },
        {
          "internalType": "string",
          "name": "gender",
          "type": "string"
        },
        {
          "internalType": "string",
          "name": "doctorAddress",
          "type": "string"
        },
        {
          "internalType": "string",
          "name": "specialization",
          "type": "string"
        },
        {
          "internalType": "string",
          "name": "consultanceFee",
          "type": "string"
        },
        {
          "internalType": "string",
          "name": "duration",
          "type": "string"
        }
      ],
      "name": "createDoctor",
      "outputs": [],
      "stateMutability": "nonpayable",
      "type": "function"
    },
    {
      "inputs": [
        {
          "internalType": "string",
          "name": "name",
          "type": "string"
        },
        {
          "internalType": "string",
          "name": "age",
          "type": "string"
        },
        {
          "internalType": "string",
          "name": "dob",
          "type": "string"
        },
        {
          "internalType": "string",
          "name": "gender",
          "type": "string"
        },
        {
          "internalType": "string",
          "name": "patientAddress",
          "type": "string"
        }
      ],
      "name": "createPatient",
      "outputs": [],
      "stateMutability": "nonpayable",
      "type": "function"
    },
    {
      "inputs": [],
      "name": "getDoctorCount",
      "outputs": [
        {
          "internalType": "uint256",
          "name": "",
          "type": "uint256"
        }
      ],
      "stateMutability": "view",
      "type": "function"
    },
    {
      "inputs": [],
      "name": "getPatientCount",
      "outputs": [
        {
          "internalType": "uint256",
          "name": "",
          "type": "uint256"
        }
      ],
      "stateMutability": "view",
      "type": "function"
    }
  ],
  "bytecode": "0x608060405234801561001057600080fd5b50610c6b806100206000396000f3fe608060405234801561001057600080fd5b50600436106100625760003560e01c806309f20ec7146100675780631ba0cf081461008357806325b4b05e1461009f57806379111c1c146100bb578063c190665b146100d9578063e7f3581c146100f7575b600080fd5b610081600480360381019061007c9190610418565b610113565b005b61009d6004803603810190610098919061057e565b61017c565b005b6100b960048036038101906100b49190610719565b6101df565b005b6100c3610227565b6040516100d091906107db565b60405180910390f35b6100e1610238565b6040516100ee91906107db565b60405180910390f35b610111600480360381019061010c91906107f6565b610249565b005b600061011f600161029a565b90507f22fd173e10fd1007729db984a99975c2289e995d09f6a7bfb8a8623628438f5d81338a8a8a8a8a8a8a604051610160999897969594939291906109c6565b60405180910390a161017260016102a8565b5050505050505050565b6000610188600061029a565b90507f586f08ee92b07f5a86e7b196efb5c81b3cd7d923972bf44e8536e7211a39acd8813388888888886040516101c59796959493929190610a84565b60405180910390a16101d760006102a8565b505050505050565b7fbdb42b1e50da552847ebdb0ce47e073dd6d3063c1b52e3098240f2e0c9ee01c385853386868660405161021896959493929190610b16565b60405180910390a15050505050565b6000610233600161029a565b905090565b6000610244600061029a565b905090565b7f50d2de581c58361230f9ffe7302ad1cdefc8ed3abe912cad4d64cad310d6f6e388883389898989898960405161028899989796959493929190610b85565b60405180910390a15050505050505050565b600081600001549050919050565b6001816000016000828254019250508190555050565b6000604051905090565b600080fd5b600080fd5b600080fd5b600080fd5b6000601f19601f8301169050919050565b7f4e487b7100000000000000000000000000000000000000000000000000000000600052604160045260246000fd5b610325826102dc565b810181811067ffffffffffffffff82111715610344576103436102ed565b5b80604052505050565b60006103576102be565b9050610363828261031c565b919050565b600067ffffffffffffffff821115610383576103826102ed565b5b61038c826102dc565b9050602081019050919050565b82818337600083830152505050565b60006103bb6103b684610368565b61034d565b9050828152602081018484840111156103d7576103d66102d7565b5b6103e2848285610399565b509392505050565b600082601f8301126103ff576103fe6102d2565b5b813561040f8482602086016103a8565b91505092915050565b600080600080600080600060e0888a031215610437576104366102c8565b5b600088013567ffffffffffffffff811115610455576104546102cd565b5b6104618a828b016103ea565b975050602088013567ffffffffffffffff811115610482576104816102cd565b5b61048e8a828b016103ea565b965050604088013567ffffffffffffffff8111156104af576104ae6102cd565b5b6104bb8a828b016103ea565b955050606088013567ffffffffffffffff8111156104dc576104db6102cd565b5b6104e88a828b016103ea565b945050608088013567ffffffffffffffff811115610509576105086102cd565b5b6105158a828b016103ea565b93505060a088013567ffffffffffffffff811115610536576105356102cd565b5b6105428a828b016103ea565b92505060c088013567ffffffffffffffff811115610563576105626102cd565b5b61056f8a828b016103ea565b91505092959891949750929550565b600080600080600060a0868803121561059a576105996102c8565b5b600086013567ffffffffffffffff8111156105b8576105b76102cd565b5b6105c4888289016103ea565b955050602086013567ffffffffffffffff8111156105e5576105e46102cd565b5b6105f1888289016103ea565b945050604086013567ffffffffffffffff811115610612576106116102cd565b5b61061e888289016103ea565b935050606086013567ffffffffffffffff81111561063f5761063e6102cd565b5b61064b888289016103ea565b925050608086013567ffffffffffffffff81111561066c5761066b6102cd565b5b610678888289016103ea565b9150509295509295909350565b6000819050919050565b61069881610685565b81146106a357600080fd5b50565b6000813590506106b58161068f565b92915050565b600073ffffffffffffffffffffffffffffffffffffffff82169050919050565b60006106e6826106bb565b9050919050565b6106f6816106db565b811461070157600080fd5b50565b600081359050610713816106ed565b92915050565b600080600080600060a08688031215610735576107346102c8565b5b6000610743888289016106a6565b9550506020610754888289016106a6565b945050604061076588828901610704565b935050606086013567ffffffffffffffff811115610786576107856102cd565b5b610792888289016103ea565b925050608086013567ffffffffffffffff8111156107b3576107b26102cd565b5b6107bf888289016103ea565b9150509295509295909350565b6107d581610685565b82525050565b60006020820190506107f060008301846107cc565b92915050565b600080600080600080600080610100898b031215610817576108166102c8565b5b60006108258b828c016106a6565b98505060206108368b828c016106a6565b97505060406108478b828c01610704565b965050606089013567ffffffffffffffff811115610868576108676102cd565b5b6108748b828c016103ea565b955050608089013567ffffffffffffffff811115610895576108946102cd565b5b6108a18b828c016103ea565b94505060a089013567ffffffffffffffff8111156108c2576108c16102cd565b5b6108ce8b828c016103ea565b93505060c089013567ffffffffffffffff8111156108ef576108ee6102cd565b5b6108fb8b828c016103ea565b92505060e089013567ffffffffffffffff81111561091c5761091b6102cd565b5b6109288b828c016103ea565b9150509295985092959890939650565b610941816106db565b82525050565b600081519050919050565b600082825260208201905092915050565b60005b83811015610981578082015181840152602081019050610966565b60008484015250505050565b600061099882610947565b6109a28185610952565b93506109b2818560208601610963565b6109bb816102dc565b840191505092915050565b6000610120820190506109dc600083018c6107cc565b6109e9602083018b610938565b81810360408301526109fb818a61098d565b90508181036060830152610a0f818961098d565b90508181036080830152610a23818861098d565b905081810360a0830152610a37818761098d565b905081810360c0830152610a4b818661098d565b905081810360e0830152610a5f818561098d565b9050818103610100830152610a74818461098d565b90509a9950505050505050505050565b600060e082019050610a99600083018a6107cc565b610aa66020830189610938565b8181036040830152610ab8818861098d565b90508181036060830152610acc818761098d565b90508181036080830152610ae0818661098d565b905081810360a0830152610af4818561098d565b905081810360c0830152610b08818461098d565b905098975050505050505050565b600060c082019050610b2b60008301896107cc565b610b3860208301886107cc565b610b456040830187610938565b610b526060830186610938565b8181036080830152610b64818561098d565b905081810360a0830152610b78818461098d565b9050979650505050505050565b600061012082019050610b9b600083018c6107cc565b610ba8602083018b6107cc565b610bb5604083018a610938565b610bc26060830189610938565b8181036080830152610bd4818861098d565b905081810360a0830152610be8818761098d565b905081810360c0830152610bfc818661098d565b905081810360e0830152610c10818561098d565b9050818103610100830152610c25818461098d565b90509a995050505050505050505056fea2646970667358221220fda479441e37c530581e9cd807d76247a4f3bb2f29ac55a1357645cbb8cd05b364736f6c63430008130033",
  "linkReferences": {},
  "deployedLinkReferences": {}
}