{"contracts/Dakter.sol":{"DClinic":{"abi":[{"anonymous":false,"inputs":[{"indexed":false,"internalType":"uint256","name":"patientId","type":"uint256"},{"indexed":false,"internalType":"uint256","name":"doctorId","type":"uint256"},{"indexed":false,"internalType":"address","name":"patientAddress","type":"address"},{"indexed":false,"internalType":"address","name":"doctorAddress","type":"address"},{"indexed":false,"internalType":"string","name":"symptoms","type":"string"},{"indexed":false,"internalType":"string","name":"pastMedHistory","type":"string"},{"indexed":false,"internalType":"string","name":"appointmentDate","type":"string"},{"indexed":false,"internalType":"string","name":"appointmentTime","type":"string"},{"indexed":false,"internalType":"string","name":"urgencyLevel","type":"string"}],"name":"AppointmentCreated","type":"event"},{"anonymous":false,"inputs":[{"indexed":false,"internalType":"uint256","name":"doctorId","type":"uint256"},{"indexed":false,"internalType":"address","name":"doctorWalletAddress","type":"address"},{"indexed":false,"internalType":"string","name":"name","type":"string"},{"indexed":false,"internalType":"string","name":"age","type":"string"},{"indexed":false,"internalType":"string","name":"gender","type":"string"},{"indexed":false,"internalType":"string","name":"doctorAddress","type":"string"},{"indexed":false,"internalType":"string","name":"specialization","type":"string"},{"indexed":false,"internalType":"string","name":"consultanceFee","type":"string"},{"indexed":false,"internalType":"string","name":"duration","type":"string"}],"name":"DoctorCreated","type":"event"},{"anonymous":false,"inputs":[{"indexed":false,"internalType":"uint256","name":"patientId","type":"uint256"},{"indexed":false,"internalType":"address","name":"patientWalletAddress","type":"address"},{"indexed":false,"internalType":"string","name":"name","type":"string"},{"indexed":false,"internalType":"string","name":"age","type":"string"},{"indexed":false,"internalType":"string","name":"dateOfBirth","type":"string"},{"indexed":false,"internalType":"string","name":"gender","type":"string"},{"indexed":false,"internalType":"string","name":"patientAddr","type":"string"}],"name":"PatientCreated","type":"event"},{"anonymous":false,"inputs":[{"indexed":false,"internalType":"uint256","name":"patientId","type":"uint256"},{"indexed":false,"internalType":"uint256","name":"doctorId","type":"uint256"},{"indexed":false,"internalType":"address","name":"doctorAddress","type":"address"},{"indexed":false,"internalType":"address","name":"patientAddress","type":"address"},{"indexed":false,"internalType":"string","name":"prescriptions","type":"string"},{"indexed":false,"internalType":"string","name":"prescriptionDate","type":"string"}],"name":"PrescriptionAdded","type":"event"},{"inputs":[{"internalType":"uint256","name":"patientId","type":"uint256"},{"internalType":"uint256","name":"doctorId","type":"uint256"},{"internalType":"address","name":"patientAddress","type":"address"},{"internalType":"string","name":"prescriptions","type":"string"},{"internalType":"string","name":"prescriptionDate","type":"string"}],"name":"addPrescription","outputs":[],"stateMutability":"nonpayable","type":"function"},{"inputs":[{"internalType":"uint256","name":"patientId","type":"uint256"},{"internalType":"uint256","name":"doctorId","type":"uint256"},{"internalType":"address","name":"doctorAddress","type":"address"},{"internalType":"string","name":"symptoms","type":"string"},{"internalType":"string","name":"pastMedHistory","type":"string"},{"internalType":"string","name":"appointmentDate","type":"string"},{"internalType":"string","name":"appointmentTime","type":"string"},{"internalType":"string","name":"urgencyLevel","type":"string"}],"name":"createAppointment","outputs":[],"stateMutability":"nonpayable","type":"function"},{"inputs":[{"internalType":"string","name":"name","type":"string"},{"internalType":"string","name":"age","type":"string"},{"internalType":"string","name":"gender","type":"string"},{"internalType":"string","name":"doctorAddress","type":"string"},{"internalType":"string","name":"specialization","type":"string"},{"internalType":"string","name":"consultanceFee","type":"string"},{"internalType":"string","name":"duration","type":"string"}],"name":"createDoctor","outputs":[],"stateMutability":"nonpayable","type":"function"},{"inputs":[{"internalType":"string","name":"name","type":"string"},{"internalType":"string","name":"age","type":"string"},{"internalType":"string","name":"dob","type":"string"},{"internalType":"string","name":"gender","type":"string"},{"internalType":"string","name":"patientAddress","type":"string"}],"name":"createPatient","outputs":[],"stateMutability":"nonpayable","type":"function"},{"inputs":[],"name":"getDoctorCount","outputs":[{"internalType":"uint256","name":"","type":"uint256"}],"stateMutability":"view","type":"function"},{"inputs":[],"name":"getPatientCount","outputs":[{"internalType":"uint256","name":"","type":"uint256"}],"stateMutability":"view","type":"function"}],"evm":{"bytecode":{"linkReferences":{},"object":"608060405234801561001057600080fd5b50610c6b806100206000396000f3fe608060405234801561001057600080fd5b50600436106100625760003560e01c806309f20ec7146100675780631ba0cf081461008357806325b4b05e1461009f57806379111c1c146100bb578063c190665b146100d9578063e7f3581c146100f7575b600080fd5b610081600480360381019061007c9190610418565b610113565b005b61009d6004803603810190610098919061057e565b61017c565b005b6100b960048036038101906100b49190610719565b6101df565b005b6100c3610227565b6040516100d091906107db565b60405180910390f35b6100e1610238565b6040516100ee91906107db565b60405180910390f35b610111600480360381019061010c91906107f6565b610249565b005b600061011f600161029a565b90507f22fd173e10fd1007729db984a99975c2289e995d09f6a7bfb8a8623628438f5d81338a8a8a8a8a8a8a604051610160999897969594939291906109c6565b60405180910390a161017260016102a8565b5050505050505050565b6000610188600061029a565b90507f586f08ee92b07f5a86e7b196efb5c81b3cd7d923972bf44e8536e7211a39acd8813388888888886040516101c59796959493929190610a84565b60405180910390a16101d760006102a8565b505050505050565b7fbdb42b1e50da552847ebdb0ce47e073dd6d3063c1b52e3098240f2e0c9ee01c385853386868660405161021896959493929190610b16565b60405180910390a15050505050565b6000610233600161029a565b905090565b6000610244600061029a565b905090565b7f50d2de581c58361230f9ffe7302ad1cdefc8ed3abe912cad4d64cad310d6f6e388883389898989898960405161028899989796959493929190610b85565b60405180910390a15050505050505050565b600081600001549050919050565b6001816000016000828254019250508190555050565b6000604051905090565b600080fd5b600080fd5b600080fd5b600080fd5b6000601f19601f8301169050919050565b7f4e487b7100000000000000000000000000000000000000000000000000000000600052604160045260246000fd5b610325826102dc565b810181811067ffffffffffffffff82111715610344576103436102ed565b5b80604052505050565b60006103576102be565b9050610363828261031c565b919050565b600067ffffffffffffffff821115610383576103826102ed565b5b61038c826102dc565b9050602081019050919050565b82818337600083830152505050565b60006103bb6103b684610368565b61034d565b9050828152602081018484840111156103d7576103d66102d7565b5b6103e2848285610399565b509392505050565b600082601f8301126103ff576103fe6102d2565b5b813561040f8482602086016103a8565b91505092915050565b600080600080600080600060e0888a031215610437576104366102c8565b5b600088013567ffffffffffffffff811115610455576104546102cd565b5b6104618a828b016103ea565b975050602088013567ffffffffffffffff811115610482576104816102cd565b5b61048e8a828b016103ea565b965050604088013567ffffffffffffffff8111156104af576104ae6102cd565b5b6104bb8a828b016103ea565b955050606088013567ffffffffffffffff8111156104dc576104db6102cd565b5b6104e88a828b016103ea565b945050608088013567ffffffffffffffff811115610509576105086102cd565b5b6105158a828b016103ea565b93505060a088013567ffffffffffffffff811115610536576105356102cd565b5b6105428a828b016103ea565b92505060c088013567ffffffffffffffff811115610563576105626102cd565b5b61056f8a828b016103ea565b91505092959891949750929550565b600080600080600060a0868803121561059a576105996102c8565b5b600086013567ffffffffffffffff8111156105b8576105b76102cd565b5b6105c4888289016103ea565b955050602086013567ffffffffffffffff8111156105e5576105e46102cd565b5b6105f1888289016103ea565b945050604086013567ffffffffffffffff811115610612576106116102cd565b5b61061e888289016103ea565b935050606086013567ffffffffffffffff81111561063f5761063e6102cd565b5b61064b888289016103ea565b925050608086013567ffffffffffffffff81111561066c5761066b6102cd565b5b610678888289016103ea565b9150509295509295909350565b6000819050919050565b61069881610685565b81146106a357600080fd5b50565b6000813590506106b58161068f565b92915050565b600073ffffffffffffffffffffffffffffffffffffffff82169050919050565b60006106e6826106bb565b9050919050565b6106f6816106db565b811461070157600080fd5b50565b600081359050610713816106ed565b92915050565b600080600080600060a08688031215610735576107346102c8565b5b6000610743888289016106a6565b9550506020610754888289016106a6565b945050604061076588828901610704565b935050606086013567ffffffffffffffff811115610786576107856102cd565b5b610792888289016103ea565b925050608086013567ffffffffffffffff8111156107b3576107b26102cd565b5b6107bf888289016103ea565b9150509295509295909350565b6107d581610685565b82525050565b60006020820190506107f060008301846107cc565b92915050565b600080600080600080600080610100898b031215610817576108166102c8565b5b60006108258b828c016106a6565b98505060206108368b828c016106a6565b97505060406108478b828c01610704565b965050606089013567ffffffffffffffff811115610868576108676102cd565b5b6108748b828c016103ea565b955050608089013567ffffffffffffffff811115610895576108946102cd565b5b6108a18b828c016103ea565b94505060a089013567ffffffffffffffff8111156108c2576108c16102cd565b5b6108ce8b828c016103ea565b93505060c089013567ffffffffffffffff8111156108ef576108ee6102cd565b5b6108fb8b828c016103ea565b92505060e089013567ffffffffffffffff81111561091c5761091b6102cd565b5b6109288b828c016103ea565b9150509295985092959890939650565b610941816106db565b82525050565b600081519050919050565b600082825260208201905092915050565b60005b83811015610981578082015181840152602081019050610966565b60008484015250505050565b600061099882610947565b6109a28185610952565b93506109b2818560208601610963565b6109bb816102dc565b840191505092915050565b6000610120820190506109dc600083018c6107cc565b6109e9602083018b610938565b81810360408301526109fb818a61098d565b90508181036060830152610a0f818961098d565b90508181036080830152610a23818861098d565b905081810360a0830152610a37818761098d565b905081810360c0830152610a4b818661098d565b905081810360e0830152610a5f818561098d565b9050818103610100830152610a74818461098d565b90509a9950505050505050505050565b600060e082019050610a99600083018a6107cc565b610aa66020830189610938565b8181036040830152610ab8818861098d565b90508181036060830152610acc818761098d565b90508181036080830152610ae0818661098d565b905081810360a0830152610af4818561098d565b905081810360c0830152610b08818461098d565b905098975050505050505050565b600060c082019050610b2b60008301896107cc565b610b3860208301886107cc565b610b456040830187610938565b610b526060830186610938565b8181036080830152610b64818561098d565b905081810360a0830152610b78818461098d565b9050979650505050505050565b600061012082019050610b9b600083018c6107cc565b610ba8602083018b6107cc565b610bb5604083018a610938565b610bc26060830189610938565b8181036080830152610bd4818861098d565b905081810360a0830152610be8818761098d565b905081810360c0830152610bfc818661098d565b905081810360e0830152610c10818561098d565b9050818103610100830152610c25818461098d565b90509a995050505050505050505056fea264697066735822122052337e1e771b72a6584f11dda78c44d094645d0871efaf5a1c974ce0838c616164736f6c63430008130033","opcodes":"PUSH1 0x80 PUSH1 0x40 MSTORE CALLVALUE DUP1 ISZERO PUSH2 0x10 JUMPI PUSH1 0x0 DUP1 REVERT JUMPDEST POP PUSH2 0xC6B DUP1 PUSH2 0x20 PUSH1 0x0 CODECOPY PUSH1 0x0 RETURN INVALID PUSH1 0x80 PUSH1 0x40 MSTORE CALLVALUE DUP1 ISZERO PUSH2 0x10 JUMPI PUSH1 0x0 DUP1 REVERT JUMPDEST POP PUSH1 0x4 CALLDATASIZE LT PUSH2 0x62 JUMPI PUSH1 0x0 CALLDATALOAD PUSH1 0xE0 SHR DUP1 PUSH4 0x9F20EC7 EQ PUSH2 0x67 JUMPI DUP1 PUSH4 0x1BA0CF08 EQ PUSH2 0x83 JUMPI DUP1 PUSH4 0x25B4B05E EQ PUSH2 0x9F JUMPI DUP1 PUSH4 0x79111C1C EQ PUSH2 0xBB JUMPI DUP1 PUSH4 0xC190665B EQ PUSH2 0xD9 JUMPI DUP1 PUSH4 0xE7F3581C EQ PUSH2 0xF7 JUMPI JUMPDEST PUSH1 0x0 DUP1 REVERT JUMPDEST PUSH2 0x81 PUSH1 0x4 DUP1 CALLDATASIZE SUB DUP2 ADD SWAP1 PUSH2 0x7C SWAP2 SWAP1 PUSH2 0x418 JUMP JUMPDEST PUSH2 0x113 JUMP JUMPDEST STOP JUMPDEST PUSH2 0x9D PUSH1 0x4 DUP1 CALLDATASIZE SUB DUP2 ADD SWAP1 PUSH2 0x98 SWAP2 SWAP1 PUSH2 0x57E JUMP JUMPDEST PUSH2 0x17C JUMP JUMPDEST STOP JUMPDEST PUSH2 0xB9 PUSH1 0x4 DUP1 CALLDATASIZE SUB DUP2 ADD SWAP1 PUSH2 0xB4 SWAP2 SWAP1 PUSH2 0x719 JUMP JUMPDEST PUSH2 0x1DF JUMP JUMPDEST STOP JUMPDEST PUSH2 0xC3 PUSH2 0x227 JUMP JUMPDEST PUSH1 0x40 MLOAD PUSH2 0xD0 SWAP2 SWAP1 PUSH2 0x7DB JUMP JUMPDEST PUSH1 0x40 MLOAD DUP1 SWAP2 SUB SWAP1 RETURN JUMPDEST PUSH2 0xE1 PUSH2 0x238 JUMP JUMPDEST PUSH1 0x40 MLOAD PUSH2 0xEE SWAP2 SWAP1 PUSH2 0x7DB JUMP JUMPDEST PUSH1 0x40 MLOAD DUP1 SWAP2 SUB SWAP1 RETURN JUMPDEST PUSH2 0x111 PUSH1 0x4 DUP1 CALLDATASIZE SUB DUP2 ADD SWAP1 PUSH2 0x10C SWAP2 SWAP1 PUSH2 0x7F6 JUMP JUMPDEST PUSH2 0x249 JUMP JUMPDEST STOP JUMPDEST PUSH1 0x0 PUSH2 0x11F PUSH1 0x1 PUSH2 0x29A JUMP JUMPDEST SWAP1 POP PUSH32 0x22FD173E10FD1007729DB984A99975C2289E995D09F6A7BFB8A8623628438F5D DUP2 CALLER DUP11 DUP11 DUP11 DUP11 DUP11 DUP11 DUP11 PUSH1 0x40 MLOAD PUSH2 0x160 SWAP10 SWAP9 SWAP8 SWAP7 SWAP6 SWAP5 SWAP4 SWAP3 SWAP2 SWAP1 PUSH2 0x9C6 JUMP JUMPDEST PUSH1 0x40 MLOAD DUP1 SWAP2 SUB SWAP1 LOG1 PUSH2 0x172 PUSH1 0x1 PUSH2 0x2A8 JUMP JUMPDEST POP POP POP POP POP POP POP POP JUMP JUMPDEST PUSH1 0x0 PUSH2 0x188 PUSH1 0x0 PUSH2 0x29A JUMP JUMPDEST SWAP1 POP PUSH32 0x586F08EE92B07F5A86E7B196EFB5C81B3CD7D923972BF44E8536E7211A39ACD8 DUP2 CALLER DUP9 DUP9 DUP9 DUP9 DUP9 PUSH1 0x40 MLOAD PUSH2 0x1C5 SWAP8 SWAP7 SWAP6 SWAP5 SWAP4 SWAP3 SWAP2 SWAP1 PUSH2 0xA84 JUMP JUMPDEST PUSH1 0x40 MLOAD DUP1 SWAP2 SUB SWAP1 LOG1 PUSH2 0x1D7 PUSH1 0x0 PUSH2 0x2A8 JUMP JUMPDEST POP POP POP POP POP POP JUMP JUMPDEST PUSH32 0xBDB42B1E50DA552847EBDB0CE47E073DD6D3063C1B52E3098240F2E0C9EE01C3 DUP6 DUP6 CALLER DUP7 DUP7 DUP7 PUSH1 0x40 MLOAD PUSH2 0x218 SWAP7 SWAP6 SWAP5 SWAP4 SWAP3 SWAP2 SWAP1 PUSH2 0xB16 JUMP JUMPDEST PUSH1 0x40 MLOAD DUP1 SWAP2 SUB SWAP1 LOG1 POP POP POP POP POP JUMP JUMPDEST PUSH1 0x0 PUSH2 0x233 PUSH1 0x1 PUSH2 0x29A JUMP JUMPDEST SWAP1 POP SWAP1 JUMP JUMPDEST PUSH1 0x0 PUSH2 0x244 PUSH1 0x0 PUSH2 0x29A JUMP JUMPDEST SWAP1 POP SWAP1 JUMP JUMPDEST PUSH32 0x50D2DE581C58361230F9FFE7302AD1CDEFC8ED3ABE912CAD4D64CAD310D6F6E3 DUP9 DUP9 CALLER DUP10 DUP10 DUP10 DUP10 DUP10 DUP10 PUSH1 0x40 MLOAD PUSH2 0x288 SWAP10 SWAP9 SWAP8 SWAP7 SWAP6 SWAP5 SWAP4 SWAP3 SWAP2 SWAP1 PUSH2 0xB85 JUMP JUMPDEST PUSH1 0x40 MLOAD DUP1 SWAP2 SUB SWAP1 LOG1 POP POP POP POP POP POP POP POP JUMP JUMPDEST PUSH1 0x0 DUP2 PUSH1 0x0 ADD SLOAD SWAP1 POP SWAP2 SWAP1 POP JUMP JUMPDEST PUSH1 0x1 DUP2 PUSH1 0x0 ADD PUSH1 0x0 DUP3 DUP3 SLOAD ADD SWAP3 POP POP DUP2 SWAP1 SSTORE POP POP JUMP JUMPDEST PUSH1 0x0 PUSH1 0x40 MLOAD SWAP1 POP SWAP1 JUMP JUMPDEST PUSH1 0x0 DUP1 REVERT JUMPDEST PUSH1 0x0 DUP1 REVERT JUMPDEST PUSH1 0x0 DUP1 REVERT JUMPDEST PUSH1 0x0 DUP1 REVERT JUMPDEST PUSH1 0x0 PUSH1 0x1F NOT PUSH1 0x1F DUP4 ADD AND SWAP1 POP SWAP2 SWAP1 POP JUMP JUMPDEST PUSH32 0x4E487B7100000000000000000000000000000000000000000000000000000000 PUSH1 0x0 MSTORE PUSH1 0x41 PUSH1 0x4 MSTORE PUSH1 0x24 PUSH1 0x0 REVERT JUMPDEST PUSH2 0x325 DUP3 PUSH2 0x2DC JUMP JUMPDEST DUP2 ADD DUP2 DUP2 LT PUSH8 0xFFFFFFFFFFFFFFFF DUP3 GT OR ISZERO PUSH2 0x344 JUMPI PUSH2 0x343 PUSH2 0x2ED JUMP JUMPDEST JUMPDEST DUP1 PUSH1 0x40 MSTORE POP POP POP JUMP JUMPDEST PUSH1 0x0 PUSH2 0x357 PUSH2 0x2BE JUMP JUMPDEST SWAP1 POP PUSH2 0x363 DUP3 DUP3 PUSH2 0x31C JUMP JUMPDEST SWAP2 SWAP1 POP JUMP JUMPDEST PUSH1 0x0 PUSH8 0xFFFFFFFFFFFFFFFF DUP3 GT ISZERO PUSH2 0x383 JUMPI PUSH2 0x382 PUSH2 0x2ED JUMP JUMPDEST JUMPDEST PUSH2 0x38C DUP3 PUSH2 0x2DC JUMP JUMPDEST SWAP1 POP PUSH1 0x20 DUP2 ADD SWAP1 POP SWAP2 SWAP1 POP JUMP JUMPDEST DUP3 DUP2 DUP4 CALLDATACOPY PUSH1 0x0 DUP4 DUP4 ADD MSTORE POP POP POP JUMP JUMPDEST PUSH1 0x0 PUSH2 0x3BB PUSH2 0x3B6 DUP5 PUSH2 0x368 JUMP JUMPDEST PUSH2 0x34D JUMP JUMPDEST SWAP1 POP DUP3 DUP2 MSTORE PUSH1 0x20 DUP2 ADD DUP5 DUP5 DUP5 ADD GT ISZERO PUSH2 0x3D7 JUMPI PUSH2 0x3D6 PUSH2 0x2D7 JUMP JUMPDEST JUMPDEST PUSH2 0x3E2 DUP5 DUP3 DUP6 PUSH2 0x399 JUMP JUMPDEST POP SWAP4 SWAP3 POP POP POP JUMP JUMPDEST PUSH1 0x0 DUP3 PUSH1 0x1F DUP4 ADD SLT PUSH2 0x3FF JUMPI PUSH2 0x3FE PUSH2 0x2D2 JUMP JUMPDEST JUMPDEST DUP2 CALLDATALOAD PUSH2 0x40F DUP5 DUP3 PUSH1 0x20 DUP7 ADD PUSH2 0x3A8 JUMP JUMPDEST SWAP2 POP POP SWAP3 SWAP2 POP POP JUMP JUMPDEST PUSH1 0x0 DUP1 PUSH1 0x0 DUP1 PUSH1 0x0 DUP1 PUSH1 0x0 PUSH1 0xE0 DUP9 DUP11 SUB SLT ISZERO PUSH2 0x437 JUMPI PUSH2 0x436 PUSH2 0x2C8 JUMP JUMPDEST JUMPDEST PUSH1 0x0 DUP9 ADD CALLDATALOAD PUSH8 0xFFFFFFFFFFFFFFFF DUP2 GT ISZERO PUSH2 0x455 JUMPI PUSH2 0x454 PUSH2 0x2CD JUMP JUMPDEST JUMPDEST PUSH2 0x461 DUP11 DUP3 DUP12 ADD PUSH2 0x3EA JUMP JUMPDEST SWAP8 POP POP PUSH1 0x20 DUP9 ADD CALLDATALOAD PUSH8 0xFFFFFFFFFFFFFFFF DUP2 GT ISZERO PUSH2 0x482 JUMPI PUSH2 0x481 PUSH2 0x2CD JUMP JUMPDEST JUMPDEST PUSH2 0x48E DUP11 DUP3 DUP12 ADD PUSH2 0x3EA JUMP JUMPDEST SWAP7 POP POP PUSH1 0x40 DUP9 ADD CALLDATALOAD PUSH8 0xFFFFFFFFFFFFFFFF DUP2 GT ISZERO PUSH2 0x4AF JUMPI PUSH2 0x4AE PUSH2 0x2CD JUMP JUMPDEST JUMPDEST PUSH2 0x4BB DUP11 DUP3 DUP12 ADD PUSH2 0x3EA JUMP JUMPDEST SWAP6 POP POP PUSH1 0x60 DUP9 ADD CALLDATALOAD PUSH8 0xFFFFFFFFFFFFFFFF DUP2 GT ISZERO PUSH2 0x4DC JUMPI PUSH2 0x4DB PUSH2 0x2CD JUMP JUMPDEST JUMPDEST PUSH2 0x4E8 DUP11 DUP3 DUP12 ADD PUSH2 0x3EA JUMP JUMPDEST SWAP5 POP POP PUSH1 0x80 DUP9 ADD CALLDATALOAD PUSH8 0xFFFFFFFFFFFFFFFF DUP2 GT ISZERO PUSH2 0x509 JUMPI PUSH2 0x508 PUSH2 0x2CD JUMP JUMPDEST JUMPDEST PUSH2 0x515 DUP11 DUP3 DUP12 ADD PUSH2 0x3EA JUMP JUMPDEST SWAP4 POP POP PUSH1 0xA0 DUP9 ADD CALLDATALOAD PUSH8 0xFFFFFFFFFFFFFFFF DUP2 GT ISZERO PUSH2 0x536 JUMPI PUSH2 0x535 PUSH2 0x2CD JUMP JUMPDEST JUMPDEST PUSH2 0x542 DUP11 DUP3 DUP12 ADD PUSH2 0x3EA JUMP JUMPDEST SWAP3 POP POP PUSH1 0xC0 DUP9 ADD CALLDATALOAD PUSH8 0xFFFFFFFFFFFFFFFF DUP2 GT ISZERO PUSH2 0x563 JUMPI PUSH2 0x562 PUSH2 0x2CD JUMP JUMPDEST JUMPDEST PUSH2 0x56F DUP11 DUP3 DUP12 ADD PUSH2 0x3EA JUMP JUMPDEST SWAP2 POP POP SWAP3 SWAP6 SWAP9 SWAP2 SWAP5 SWAP8 POP SWAP3 SWAP6 POP JUMP JUMPDEST PUSH1 0x0 DUP1 PUSH1 0x0 DUP1 PUSH1 0x0 PUSH1 0xA0 DUP7 DUP9 SUB SLT ISZERO PUSH2 0x59A JUMPI PUSH2 0x599 PUSH2 0x2C8 JUMP JUMPDEST JUMPDEST PUSH1 0x0 DUP7 ADD CALLDATALOAD PUSH8 0xFFFFFFFFFFFFFFFF DUP2 GT ISZERO PUSH2 0x5B8 JUMPI PUSH2 0x5B7 PUSH2 0x2CD JUMP JUMPDEST JUMPDEST PUSH2 0x5C4 DUP9 DUP3 DUP10 ADD PUSH2 0x3EA JUMP JUMPDEST SWAP6 POP POP PUSH1 0x20 DUP7 ADD CALLDATALOAD PUSH8 0xFFFFFFFFFFFFFFFF DUP2 GT ISZERO PUSH2 0x5E5 JUMPI PUSH2 0x5E4 PUSH2 0x2CD JUMP JUMPDEST JUMPDEST PUSH2 0x5F1 DUP9 DUP3 DUP10 ADD PUSH2 0x3EA JUMP JUMPDEST SWAP5 POP POP PUSH1 0x40 DUP7 ADD CALLDATALOAD PUSH8 0xFFFFFFFFFFFFFFFF DUP2 GT ISZERO PUSH2 0x612 JUMPI PUSH2 0x611 PUSH2 0x2CD JUMP JUMPDEST JUMPDEST PUSH2 0x61E DUP9 DUP3 DUP10 ADD PUSH2 0x3EA JUMP JUMPDEST SWAP4 POP POP PUSH1 0x60 DUP7 ADD CALLDATALOAD PUSH8 0xFFFFFFFFFFFFFFFF DUP2 GT ISZERO PUSH2 0x63F JUMPI PUSH2 0x63E PUSH2 0x2CD JUMP JUMPDEST JUMPDEST PUSH2 0x64B DUP9 DUP3 DUP10 ADD PUSH2 0x3EA JUMP JUMPDEST SWAP3 POP POP PUSH1 0x80 DUP7 ADD CALLDATALOAD PUSH8 0xFFFFFFFFFFFFFFFF DUP2 GT ISZERO PUSH2 0x66C JUMPI PUSH2 0x66B PUSH2 0x2CD JUMP JUMPDEST JUMPDEST PUSH2 0x678 DUP9 DUP3 DUP10 ADD PUSH2 0x3EA JUMP JUMPDEST SWAP2 POP POP SWAP3 SWAP6 POP SWAP3 SWAP6 SWAP1 SWAP4 POP JUMP JUMPDEST PUSH1 0x0 DUP2 SWAP1 POP SWAP2 SWAP1 POP JUMP JUMPDEST PUSH2 0x698 DUP2 PUSH2 0x685 JUMP JUMPDEST DUP2 EQ PUSH2 0x6A3 JUMPI PUSH1 0x0 DUP1 REVERT JUMPDEST POP JUMP JUMPDEST PUSH1 0x0 DUP2 CALLDATALOAD SWAP1 POP PUSH2 0x6B5 DUP2 PUSH2 0x68F JUMP JUMPDEST SWAP3 SWAP2 POP POP JUMP JUMPDEST PUSH1 0x0 PUSH20 0xFFFFFFFFFFFFFFFFFFFFFFFFFFFFFFFFFFFFFFFF DUP3 AND SWAP1 POP SWAP2 SWAP1 POP JUMP JUMPDEST PUSH1 0x0 PUSH2 0x6E6 DUP3 PUSH2 0x6BB JUMP JUMPDEST SWAP1 POP SWAP2 SWAP1 POP JUMP JUMPDEST PUSH2 0x6F6 DUP2 PUSH2 0x6DB JUMP JUMPDEST DUP2 EQ PUSH2 0x701 JUMPI PUSH1 0x0 DUP1 REVERT JUMPDEST POP JUMP JUMPDEST PUSH1 0x0 DUP2 CALLDATALOAD SWAP1 POP PUSH2 0x713 DUP2 PUSH2 0x6ED JUMP JUMPDEST SWAP3 SWAP2 POP POP JUMP JUMPDEST PUSH1 0x0 DUP1 PUSH1 0x0 DUP1 PUSH1 0x0 PUSH1 0xA0 DUP7 DUP9 SUB SLT ISZERO PUSH2 0x735 JUMPI PUSH2 0x734 PUSH2 0x2C8 JUMP JUMPDEST JUMPDEST PUSH1 0x0 PUSH2 0x743 DUP9 DUP3 DUP10 ADD PUSH2 0x6A6 JUMP JUMPDEST SWAP6 POP POP PUSH1 0x20 PUSH2 0x754 DUP9 DUP3 DUP10 ADD PUSH2 0x6A6 JUMP JUMPDEST SWAP5 POP POP PUSH1 0x40 PUSH2 0x765 DUP9 DUP3 DUP10 ADD PUSH2 0x704 JUMP JUMPDEST SWAP4 POP POP PUSH1 0x60 DUP7 ADD CALLDATALOAD PUSH8 0xFFFFFFFFFFFFFFFF DUP2 GT ISZERO PUSH2 0x786 JUMPI PUSH2 0x785 PUSH2 0x2CD JUMP JUMPDEST JUMPDEST PUSH2 0x792 DUP9 DUP3 DUP10 ADD PUSH2 0x3EA JUMP JUMPDEST SWAP3 POP POP PUSH1 0x80 DUP7 ADD CALLDATALOAD PUSH8 0xFFFFFFFFFFFFFFFF DUP2 GT ISZERO PUSH2 0x7B3 JUMPI PUSH2 0x7B2 PUSH2 0x2CD JUMP JUMPDEST JUMPDEST PUSH2 0x7BF DUP9 DUP3 DUP10 ADD PUSH2 0x3EA JUMP JUMPDEST SWAP2 POP POP SWAP3 SWAP6 POP SWAP3 SWAP6 SWAP1 SWAP4 POP JUMP JUMPDEST PUSH2 0x7D5 DUP2 PUSH2 0x685 JUMP JUMPDEST DUP3 MSTORE POP POP JUMP JUMPDEST PUSH1 0x0 PUSH1 0x20 DUP3 ADD SWAP1 POP PUSH2 0x7F0 PUSH1 0x0 DUP4 ADD DUP5 PUSH2 0x7CC JUMP JUMPDEST SWAP3 SWAP2 POP POP JUMP JUMPDEST PUSH1 0x0 DUP1 PUSH1 0x0 DUP1 PUSH1 0x0 DUP1 PUSH1 0x0 DUP1 PUSH2 0x100 DUP10 DUP12 SUB SLT ISZERO PUSH2 0x817 JUMPI PUSH2 0x816 PUSH2 0x2C8 JUMP JUMPDEST JUMPDEST PUSH1 0x0 PUSH2 0x825 DUP12 DUP3 DUP13 ADD PUSH2 0x6A6 JUMP JUMPDEST SWAP9 POP POP PUSH1 0x20 PUSH2 0x836 DUP12 DUP3 DUP13 ADD PUSH2 0x6A6 JUMP JUMPDEST SWAP8 POP POP PUSH1 0x40 PUSH2 0x847 DUP12 DUP3 DUP13 ADD PUSH2 0x704 JUMP JUMPDEST SWAP7 POP POP PUSH1 0x60 DUP10 ADD CALLDATALOAD PUSH8 0xFFFFFFFFFFFFFFFF DUP2 GT ISZERO PUSH2 0x868 JUMPI PUSH2 0x867 PUSH2 0x2CD JUMP JUMPDEST JUMPDEST PUSH2 0x874 DUP12 DUP3 DUP13 ADD PUSH2 0x3EA JUMP JUMPDEST SWAP6 POP POP PUSH1 0x80 DUP10 ADD CALLDATALOAD PUSH8 0xFFFFFFFFFFFFFFFF DUP2 GT ISZERO PUSH2 0x895 JUMPI PUSH2 0x894 PUSH2 0x2CD JUMP JUMPDEST JUMPDEST PUSH2 0x8A1 DUP12 DUP3 DUP13 ADD PUSH2 0x3EA JUMP JUMPDEST SWAP5 POP POP PUSH1 0xA0 DUP10 ADD CALLDATALOAD PUSH8 0xFFFFFFFFFFFFFFFF DUP2 GT ISZERO PUSH2 0x8C2 JUMPI PUSH2 0x8C1 PUSH2 0x2CD JUMP JUMPDEST JUMPDEST PUSH2 0x8CE DUP12 DUP3 DUP13 ADD PUSH2 0x3EA JUMP JUMPDEST SWAP4 POP POP PUSH1 0xC0 DUP10 ADD CALLDATALOAD PUSH8 0xFFFFFFFFFFFFFFFF DUP2 GT ISZERO PUSH2 0x8EF JUMPI PUSH2 0x8EE PUSH2 0x2CD JUMP JUMPDEST JUMPDEST PUSH2 0x8FB DUP12 DUP3 DUP13 ADD PUSH2 0x3EA JUMP JUMPDEST SWAP3 POP POP PUSH1 0xE0 DUP10 ADD CALLDATALOAD PUSH8 0xFFFFFFFFFFFFFFFF DUP2 GT ISZERO PUSH2 0x91C JUMPI PUSH2 0x91B PUSH2 0x2CD JUMP JUMPDEST JUMPDEST PUSH2 0x928 DUP12 DUP3 DUP13 ADD PUSH2 0x3EA JUMP JUMPDEST SWAP2 POP POP SWAP3 SWAP6 SWAP9 POP SWAP3 SWAP6 SWAP9 SWAP1 SWAP4 SWAP7 POP JUMP JUMPDEST PUSH2 0x941 DUP2 PUSH2 0x6DB JUMP JUMPDEST DUP3 MSTORE POP POP JUMP JUMPDEST PUSH1 0x0 DUP2 MLOAD SWAP1 POP SWAP2 SWAP1 POP JUMP JUMPDEST PUSH1 0x0 DUP3 DUP3 MSTORE PUSH1 0x20 DUP3 ADD SWAP1 POP SWAP3 SWAP2 POP POP JUMP JUMPDEST PUSH1 0x0 JUMPDEST DUP4 DUP2 LT ISZERO PUSH2 0x981 JUMPI DUP1 DUP3 ADD MLOAD DUP2 DUP5 ADD MSTORE PUSH1 0x20 DUP2 ADD SWAP1 POP PUSH2 0x966 JUMP JUMPDEST PUSH1 0x0 DUP5 DUP5 ADD MSTORE POP POP POP POP JUMP JUMPDEST PUSH1 0x0 PUSH2 0x998 DUP3 PUSH2 0x947 JUMP JUMPDEST PUSH2 0x9A2 DUP2 DUP6 PUSH2 0x952 JUMP JUMPDEST SWAP4 POP PUSH2 0x9B2 DUP2 DUP6 PUSH1 0x20 DUP7 ADD PUSH2 0x963 JUMP JUMPDEST PUSH2 0x9BB DUP2 PUSH2 0x2DC JUMP JUMPDEST DUP5 ADD SWAP2 POP POP SWAP3 SWAP2 POP POP JUMP JUMPDEST PUSH1 0x0 PUSH2 0x120 DUP3 ADD SWAP1 POP PUSH2 0x9DC PUSH1 0x0 DUP4 ADD DUP13 PUSH2 0x7CC JUMP JUMPDEST PUSH2 0x9E9 PUSH1 0x20 DUP4 ADD DUP12 PUSH2 0x938 JUMP JUMPDEST DUP2 DUP2 SUB PUSH1 0x40 DUP4 ADD MSTORE PUSH2 0x9FB DUP2 DUP11 PUSH2 0x98D JUMP JUMPDEST SWAP1 POP DUP2 DUP2 SUB PUSH1 0x60 DUP4 ADD MSTORE PUSH2 0xA0F DUP2 DUP10 PUSH2 0x98D JUMP JUMPDEST SWAP1 POP DUP2 DUP2 SUB PUSH1 0x80 DUP4 ADD MSTORE PUSH2 0xA23 DUP2 DUP9 PUSH2 0x98D JUMP JUMPDEST SWAP1 POP DUP2 DUP2 SUB PUSH1 0xA0 DUP4 ADD MSTORE PUSH2 0xA37 DUP2 DUP8 PUSH2 0x98D JUMP JUMPDEST SWAP1 POP DUP2 DUP2 SUB PUSH1 0xC0 DUP4 ADD MSTORE PUSH2 0xA4B DUP2 DUP7 PUSH2 0x98D JUMP JUMPDEST SWAP1 POP DUP2 DUP2 SUB PUSH1 0xE0 DUP4 ADD MSTORE PUSH2 0xA5F DUP2 DUP6 PUSH2 0x98D JUMP JUMPDEST SWAP1 POP DUP2 DUP2 SUB PUSH2 0x100 DUP4 ADD MSTORE PUSH2 0xA74 DUP2 DUP5 PUSH2 0x98D JUMP JUMPDEST SWAP1 POP SWAP11 SWAP10 POP POP POP POP POP POP POP POP POP POP JUMP JUMPDEST PUSH1 0x0 PUSH1 0xE0 DUP3 ADD SWAP1 POP PUSH2 0xA99 PUSH1 0x0 DUP4 ADD DUP11 PUSH2 0x7CC JUMP JUMPDEST PUSH2 0xAA6 PUSH1 0x20 DUP4 ADD DUP10 PUSH2 0x938 JUMP JUMPDEST DUP2 DUP2 SUB PUSH1 0x40 DUP4 ADD MSTORE PUSH2 0xAB8 DUP2 DUP9 PUSH2 0x98D JUMP JUMPDEST SWAP1 POP DUP2 DUP2 SUB PUSH1 0x60 DUP4 ADD MSTORE PUSH2 0xACC DUP2 DUP8 PUSH2 0x98D JUMP JUMPDEST SWAP1 POP DUP2 DUP2 SUB PUSH1 0x80 DUP4 ADD MSTORE PUSH2 0xAE0 DUP2 DUP7 PUSH2 0x98D JUMP JUMPDEST SWAP1 POP DUP2 DUP2 SUB PUSH1 0xA0 DUP4 ADD MSTORE PUSH2 0xAF4 DUP2 DUP6 PUSH2 0x98D JUMP JUMPDEST SWAP1 POP DUP2 DUP2 SUB PUSH1 0xC0 DUP4 ADD MSTORE PUSH2 0xB08 DUP2 DUP5 PUSH2 0x98D JUMP JUMPDEST SWAP1 POP SWAP9 SWAP8 POP POP POP POP POP POP POP POP JUMP JUMPDEST PUSH1 0x0 PUSH1 0xC0 DUP3 ADD SWAP1 POP PUSH2 0xB2B PUSH1 0x0 DUP4 ADD DUP10 PUSH2 0x7CC JUMP JUMPDEST PUSH2 0xB38 PUSH1 0x20 DUP4 ADD DUP9 PUSH2 0x7CC JUMP JUMPDEST PUSH2 0xB45 PUSH1 0x40 DUP4 ADD DUP8 PUSH2 0x938 JUMP JUMPDEST PUSH2 0xB52 PUSH1 0x60 DUP4 ADD DUP7 PUSH2 0x938 JUMP JUMPDEST DUP2 DUP2 SUB PUSH1 0x80 DUP4 ADD MSTORE PUSH2 0xB64 DUP2 DUP6 PUSH2 0x98D JUMP JUMPDEST SWAP1 POP DUP2 DUP2 SUB PUSH1 0xA0 DUP4 ADD MSTORE PUSH2 0xB78 DUP2 DUP5 PUSH2 0x98D JUMP JUMPDEST SWAP1 POP SWAP8 SWAP7 POP POP POP POP POP POP POP JUMP JUMPDEST PUSH1 0x0 PUSH2 0x120 DUP3 ADD SWAP1 POP PUSH2 0xB9B PUSH1 0x0 DUP4 ADD DUP13 PUSH2 0x7CC JUMP JUMPDEST PUSH2 0xBA8 PUSH1 0x20 DUP4 ADD DUP12 PUSH2 0x7CC JUMP JUMPDEST PUSH2 0xBB5 PUSH1 0x40 DUP4 ADD DUP11 PUSH2 0x938 JUMP JUMPDEST PUSH2 0xBC2 PUSH1 0x60 DUP4 ADD DUP10 PUSH2 0x938 JUMP JUMPDEST DUP2 DUP2 SUB PUSH1 0x80 DUP4 ADD MSTORE PUSH2 0xBD4 DUP2 DUP9 PUSH2 0x98D JUMP JUMPDEST SWAP1 POP DUP2 DUP2 SUB PUSH1 0xA0 DUP4 ADD MSTORE PUSH2 0xBE8 DUP2 DUP8 PUSH2 0x98D JUMP JUMPDEST SWAP1 POP DUP2 DUP2 SUB PUSH1 0xC0 DUP4 ADD MSTORE PUSH2 0xBFC DUP2 DUP7 PUSH2 0x98D JUMP JUMPDEST SWAP1 POP DUP2 DUP2 SUB PUSH1 0xE0 DUP4 ADD MSTORE PUSH2 0xC10 DUP2 DUP6 PUSH2 0x98D JUMP JUMPDEST SWAP1 POP DUP2 DUP2 SUB PUSH2 0x100 DUP4 ADD MSTORE PUSH2 0xC25 DUP2 DUP5 PUSH2 0x98D JUMP JUMPDEST SWAP1 POP SWAP11 SWAP10 POP POP POP POP POP POP POP POP POP POP JUMP INVALID LOG2 PUSH5 0x6970667358 0x22 SLT KECCAK256 MSTORE CALLER PUSH31 0x1E771B72A6584F11DDA78C44D094645D0871EFAF5A1C974CE0838C61616473 PUSH16 0x6C634300081300330000000000000000 "},"methodIdentifiers":{"addPrescription(uint256,uint256,address,string,string)":"25b4b05e","createAppointment(uint256,uint256,address,string,string,string,string,string)":"e7f3581c","createDoctor(string,string,string,string,string,string,string)":"09f20ec7","createPatient(string,string,string,string,string)":"1ba0cf08","getDoctorCount()":"79111c1c","getPatientCount()":"c190665b"}}}}}